{"19e59364daf34d97ed6584e9e978f3e2375adea9a4561a83d2066d92a010ba13":{"txid":"19e59364daf34d97ed6584e9e978f3e2375adea9a4561a83d2066d92a010ba13","hex":"01000000000101b2ed393f1353c54a1cc364ebf1ae71ec9289dfb565566a4c5697959926c3fb8b01000000171600143cbeea594ca16860216d7b940eae5329f52f5026ffffffff0290f4f7000000000017a9142244ce86d664e85801f7eb2a56dd35afd268212587dd2daa282c00000017a9141f3b0503f81dd72ef6854be892a425370c9d374187024830450221008e368505903906696edbb297ec3d9d42d3631dc38b7fb8154212ce10fad6a4f0022063664b7ac33a315cface6fba7bf277def8b372d68bfb27d0da5b0dd73af734c701210346bcb05ff3e4b32e824a74f9da5cf0dd6106419fcd3939b0fe22ed646fde308b00000000","blockHeight":1249371,"date":1511921755,"fees":"100000","inputs":[{"txId":"8bfbc326999597564c6a5665b5df8992ec71aef1eb64c31c4ac553133f39edb2","outputIndex":1,"n":0,"scriptPubkey":"a91420233dbf0f3c341339e61c9fcb8e83e4e0650d7a87","amount":"189677152525"}],"outputs":[{"n":0,"scriptPubkey":"a9142244ce86d664e85801f7eb2a56dd35afd268212587","amount":"16250000"},{"n":1,"scriptPubkey":"a9141f3b0503f81dd72ef6854be892a425370c9d374187","amount":"189660802525"}],"ourIns":[],"ourOuts":["0"],"ourAmount":"16250000"}}