{"86de2d2e689bda718fd7e2a486c9c6ed371c0cee9c3c6bc905211552c02f88a5":{"txid":"86de2d2e689bda718fd7e2a486c9c6ed371c0cee9c3c6bc905211552c02f88a5","hex":"01000000000101ef47bed0f91b51849bdf8aac058a516ba4dc3051c5d76866d15db8e4fdcf40e601000000171600143cd6efa7f9224fa989fd4b98b16bc0a6e9d36edbffffffff0240d2df030000000017a91438d5c9084ddc8e7c6abb34751fb24ce84738c39d873c7501f92b00000017a9143224fc9ddc74444a147eb1b8acc2942202a9bce98702483045022100a29d390e64e8710d3d6070df05037277a33cb1cba90d9d297c3ef3b6e26e0eff022045fd5180d572217758cf86d5a0b982188fe918b8cbe7a25d1018daa2b96600ce012102fcbe47219bae72b108e009ea81d588e0f43f43877d84ebc820db520bc43288a800000000","blockHeight":1249371,"date":1511921755,"fees":"100000","inputs":[{"txId":"e640cffde4b85dd16668d7c55130dca46b518a05ac8adf9b84511bf9d0be47ef","outputIndex":1,"n":0,"scriptPubkey":"a9147a3f5a973d0b1c1402e40507ca1b66afbf8a656087","amount":"188926316060"}],"outputs":[{"n":0,"scriptPubkey":"a91438d5c9084ddc8e7c6abb34751fb24ce84738c39d87","amount":"65000000"},{"n":1,"scriptPubkey":"a9143224fc9ddc74444a147eb1b8acc2942202a9bce987","amount":"188861216060"}],"ourIns":[],"ourOuts":["0"],"ourAmount":"65000000"}}