{"99701d23ae201fafeafeafa2120f048213f4cec6030208a35b4adab98f500bf0":{"txid":"99701d23ae201fafeafeafa2120f048213f4cec6030208a35b4adab98f500bf0","hex":"010000000001018bf6f8644202077235c5edf57b9e3f8a06c14677735ffac066ea18039afa14260100000017160014b7e04c29e9929f2f76ce9fa7d84bd51ef293ae56ffffffff0280a4bf070000000017a9142cee2a1dc30c73232c945eb39e389cec172178ed871983f4322c00000017a914fa2199dfe08b2a12ff9741d0f2b57afb8852a75487024830450221009bcae8a93481b0285a4d7cf316e2e4265b6aeba8511c889b4295035db923305b0220021f932ce7ea5180020f8e6d6eb778c6774ad4bdfec9a1e7e26a039a496b362301210226f468993478ebfafe505de64031f79e417d69a9bf3aa8255c0893ca0507265800000000","blockHeight":1249371,"date":1511921755,"fees":"100000","inputs":[{"txId":"2614fa9a0318ea66c0fa5f737746c1068a3f9e7bf5edc5357207024264f8f68b","outputIndex":1,"n":0,"scriptPubkey":"a914ee92fd08a6ff8857dc5284e5c583b505413aec6a87","amount":"189963546169"}],"outputs":[{"n":0,"scriptPubkey":"a9142cee2a1dc30c73232c945eb39e389cec172178ed87","amount":"130000000"},{"n":1,"scriptPubkey":"a914fa2199dfe08b2a12ff9741d0f2b57afb8852a75487","amount":"189833446169"}],"ourIns":[],"ourOuts":["0"],"ourAmount":"130000000"}}