{"9c8d213abeddebe6800597a5333215d9eb90fcae710c3b95daa0b7710f72612d":{"txid":"9c8d213abeddebe6800597a5333215d9eb90fcae710c3b95daa0b7710f72612d","hex":"01000000000101b4c8feb9caaa9473c14b10234c3837466a7b1a95edadac6e716c1796a8ea6361010000001716001475f2fa56af605aa713b7f7dfc043065247383232ffffffff0220e9ef010000000017a9143e5c2d1ac6394bed008d5723a74d7a49c6d7b6e28758cf39e92b00000017a914d8c5d40f959ba17f43996ee0e97d2f711fa82a2b870247304402204cc76bc4fd27b3c5b03addcb203d8880b5d9fdab8f0231e24e5e54d87920e671022069392f8ad752b3b35b4791c427119ea511e67b507e35aac9ee58c495c072a9df01210295d2069f6266db09ab1dd1926f1649f5ddc09a55e38ca85637ac893b324170e700000000","blockHeight":1249371,"date":1511921755,"fees":"100000","inputs":[{"txId":"6163eaa896176c716eacaded951a7b6a4637384c23104bc17394aacab9fec8b4","outputIndex":1,"n":0,"scriptPubkey":"a914e28b1c3694da1482c426ecda8989693da9f4423487","amount":"188629073688"}],"outputs":[{"n":0,"scriptPubkey":"a9143e5c2d1ac6394bed008d5723a74d7a49c6d7b6e287","amount":"32500000"},{"n":1,"scriptPubkey":"a914d8c5d40f959ba17f43996ee0e97d2f711fa82a2b87","amount":"188596473688"}],"ourIns":[],"ourOuts":["0"],"ourAmount":"32500000"}}