{"c5b4b48406155c5cbddcb0be3ffcfb42dc1b698856913bd79cd0f154fb05c8a1":{"txid":"c5b4b48406155c5cbddcb0be3ffcfb42dc1b698856913bd79cd0f154fb05c8a1","hex":"01000000000101f00b508fb9da4a5ba3080203c6cef41382040f12a2affeeaaf1f20ae231d709900000000171600143825dda06b736a302f2b5fbefb464ffa1100c8f0ffffffff03503403000000000017a9141cec736050250dbfaff4b4e1819af0907322143f87a0680600000000001600141729951afbbfbe44c227201fcf1b79dc7dc4874b50c5a6070000000017a914bf76ff07ad44824990e72be8d85aa102b8cedc128702483045022100f68fce50188407e1f99825d560376e2e7cecc425aef5a90588e6016bde1c6b1b02207346894645e072b9624c11ae8804ef734e73b0890e3c737792547dfeb7e31a2601210340117bc2cc9a38e179d9e5759fe3c64ef25c1a33db8c9daadfbfb2c40c7f303700000000","blockHeight":1250624,"date":1512020289,"fees":"1000000","inputs":[{"txId":"99701d23ae201fafeafeafa2120f048213f4cec6030208a35b4adab98f500bf0","outputIndex":-1,"n":0,"scriptPubkey":"a9142cee2a1dc30c73232c945eb39e389cec172178ed87","amount":"130000000"}],"outputs":[{"n":0,"scriptPubkey":"a9141cec736050250dbfaff4b4e1819af0907322143f87","amount":"210000"},{"n":1,"scriptPubkey":"00141729951afbbfbe44c227201fcf1b79dc7dc4874b","amount":"420000"},{"n":2,"scriptPubkey":"a914bf76ff07ad44824990e72be8d85aa102b8cedc1287","amount":"128370000"}],"ourIns":["0"],"ourOuts":["2"],"ourAmount":"-1630000"}}