{"e1d703801f2f64400cc98d9a2e7b6a4bcb304ff9e718685b9932c0d46cd124b3":{"txid":"e1d703801f2f64400cc98d9a2e7b6a4bcb304ff9e718685b9932c0d46cd124b3","hex":"0100000000010182271c18483704b162f0b90c14ec92c2646f161be0329b58cc2a7934fb5a8616010000001716001486372e3239089b15fd1dc5cb3a3d378d9bebc0a9ffffffff0280a4bf070000000017a9147a38669dfc5147ca79d4fea0b2b78c3838ce4d17876ef5c1162c00000017a91400c9e5c10d226995dd5dc56fcefed5b01b2af73787024730440220782d8f646d0d5d31733d8e2b544307cd7ba8add919f0bca4d754e4943ca9b9d002202e66ed1575230b84a1932b5d6ca2ef2c49637ad5bf3e06f4e8ed220ee5505248012102b02a055c2137466026407f51b45be77e6e0e1b40422bd13bb7bd37e99b04c60f00000000","blockHeight":1250624,"date":1512020289,"fees":"100000","inputs":[{"txId":"16865afb34792acc589b32e01b166f64c292ec140cb9f062b1043748181c2782","outputIndex":1,"n":0,"scriptPubkey":"a9148210e70aa4b27ce1a7ee73c971585cbe7daec22187","amount":"189490471054"}],"outputs":[{"n":0,"scriptPubkey":"a9147a38669dfc5147ca79d4fea0b2b78c3838ce4d1787","amount":"130000000"},{"n":1,"scriptPubkey":"a91400c9e5c10d226995dd5dc56fcefed5b01b2af73787","amount":"189360371054"}],"ourIns":[],"ourOuts":["0"],"ourAmount":"130000000"}}